{
  "_format": "hh-sol-artifact-1",
  "contractName": "WastePayoutManager",
  "sourceName": "contracts/WastePayoutManager.sol",
  "abi": [
    {
      "inputs": [],
      "stateMutability": "nonpayable",
      "type": "constructor"
    },
    {
      "inputs": [
        {
          "internalType": "address",
          "name": "toBoy",
          "type": "address"
        }
      ],
      "name": "sendToDeliveryBoy",
      "outputs": [],
      "stateMutability": "payable",
      "type": "function"
    },
    {
      "inputs": [
        {
          "internalType": "address",
          "name": "toUser",
          "type": "address"
        }
      ],
      "name": "sendToUser",
      "outputs": [],
      "stateMutability": "payable",
      "type": "function"
    }
  ],
  "bytecode": "0x608060405234801561001057600080fd5b506102c3806100206000396000f3fe6080604052600436106100295760003560e01c80638b8fbdeb1461002e578063de2f96ee1461004a575b600080fd5b610048600480360381019061004391906101e3565b610066565b005b610064600480360381019061005f91906101e3565b6100f3565b005b600034116100a9576040517f08c379a00000000000000000000000000000000000000000000000000000000081526004016100a09061026d565b60405180910390fd5b8073ffffffffffffffffffffffffffffffffffffffff166108fc349081150290604051600060405180830381858888f193505050501580156100ef573d6000803e3d6000fd5b5050565b60003411610136576040517f08c379a000000000000000000000000000000000000000000000000000000000815260040161012d9061026d565b60405180910390fd5b8073ffffffffffffffffffffffffffffffffffffffff166108fc349081150290604051600060405180830381858888f1935050505015801561017c573d6000803e3d6000fd5b5050565b600080fd5b600073ffffffffffffffffffffffffffffffffffffffff82169050919050565b60006101b082610185565b9050919050565b6101c0816101a5565b81146101cb57600080fd5b50565b6000813590506101dd816101b7565b92915050565b6000602082840312156101f9576101f8610180565b5b6000610207848285016101ce565b91505092915050565b600082825260208201905092915050565b7f4e6f204554482073656e74000000000000000000000000000000000000000000600082015250565b6000610257600b83610210565b915061026282610221565b602082019050919050565b600060208201905081810360008301526102868161024a565b905091905056fea2646970667358221220d890d0dd0066ecb87ed2bedaed0d6c0a3cce779112c1b113f99d573defcc31f664736f6c63430008140033",
  "linkReferences": {},
  "deployedLinkReferences": {}
}